:020000040800F2
:1000000000280020E50B0008890B00088F0B000872
:10001000950B00089B0B0008A10B000800000000D6
:10002000000000000000000000000000A70B000816
:10003000B30B000800000000BF0B0008CB0B00084A
:100040002D0C00082D0C00082D0C00082D0C0008AC
:100050002D0C00082D0C00082D0C00082D0C00089C
:100060002D0C00082D0C00082D0C00082D0C00088C
:100070002D0C00082D0C00082D0C00082D0C00087C
:100080002D0C00082D0C00082D0C00082D0C00086C
:100090002D0C00082D0C00082D0C00082D0C00085C
:1000A0002D0C00082D0C00082D0C00082D0C00084C
:1000B0002D0C00082D0C0008000000002D0C00087D
:1000C0002D0C000800000000000000002D0C0008AE
:1000D000000000002D0C00082D0C0008000000009E
:1000E0002D0C00082D0C00082D0C0008000000004D
:1000F0000000000000000000000000000000000000
:0C01000000000000000000005FF808F1A3
:10010C0010B5054C237833B9044B13B10448AFF345
:10011C0000800123237010BD0C00002000000000A3
:10012C00381A000808B5034B1BB103490348AFF359
:10013C00008008BD0000000010000020381A0008E4
:10014C0080B582B000AF78607B68002B23D1002291
:10015C000121C24801F04AF800220221BF4801F0F7
:10016C0045F800220421BD4801F040F80022082186
:10017C00BA4801F03BF800221021B84801F036F8DB
:10018C0000222021B54801F031F801224021B3486A
:10019C0001F02CF85DE17B68012B23D101220121B8
:1001AC00AE4801F023F800220221AC4801F01EF801
:1001BC0000220421A94801F019F801220821A748BE
:1001CC0001F014F801221021A44801F00FF80122CB
:1001DC002021A24801F00AF8012240219F4801F099
:1001EC0005F836E17B68022B23D1002201219B48C4
:1001FC0000F0FCFF00220221984800F0F7FF0122DA
:10020C000421964800F0F2FF00220821934800F0E8
:10021C00EDFF00221021914800F0E8FF012220217F
:10022C008E4800F0E3FF002240218C4800F0DEFFF6
:10023C000FE17B68032B23D100220121874800F0BA
:10024C00D5FF00220221854800F0D0FF00220421B6
:10025C00824800F0CBFF00220821804800F0C6FF46
:10026C00012210217D4800F0C1FF012220217B4892
:10027C0000F0BCFF00224021784800F0B7FFE8E016
:10028C007B68042B23D101220121744800F0AEFFBE
:10029C0000220221714800F0A9FF002204216F48BE
:1002AC0000F0A4FF012208216C4800F09FFF0122FE
:1002BC0010216A4800F09AFF00222021674800F0C4
:1002CC0095FF00224021654800F090FFC1E07B685B
:1002DC00052B23D100220121604800F087FF012269
:1002EC0002215E4800F082FF002204215B4800F0EE
:1002FC007DFF00220821594800F078FF01221021CF
:10030C00564800F073FF00222021544800F06EFF85
:10031C0000224021514800F069FF9AE07B68062BCF
:10032C0023D1002201214D4800F060FF012202215F
:10033C004A4800F05BFF00220421484800F056FFB9
:10034C0000220821454800F051FF002210214348AB
:10035C0000F04CFF00222021404800F047FF002213
:10036C0040213E4800F042FF73E07B68072B23D10D
:10037C0000220121394800F039FF002202213748C0
:10038C0000F034FF00220421344800F02FFF01223A
:10039C000821324800F02AFF012210212F4800F0DA
:1003AC0025FF012220212D4800F020FF01224021B1
:1003BC002A4800F01BFF4CE07B68082B23D100225D
:1003CC000121264800F012FF00220221234800F0F0
:1003DC000DFF00220421214800F008FF0022082113
:1003EC001E4800F003FF002210211C4800F0FEFE06
:1003FC0000222021194800F0F9FE00224021174864
:10040C0000F0F4FE25E07B68092B22D100220121AB
:10041C00124800F0EBFE00220221104800F0E6FE2C
:10042C00002204210D4800F0E1FE002208210B48B7
:10043C0000F0DCFE01221021084800F0D7FE00225B
:10044C002021064800F0D2FE00224021034800F093
:10045C00CDFE00BF0837BD4680BD00BF000C01407B
:10046C0080B582B000AF78607B68002B29D1002268
:10047C008021C84800F0BAFE00224FF48071C548B4
:10048C0000F0B4FE00224FF40071C24800F0AEFE42
:10049C0000224FF48061BF4800F0A8FE00224FF408
:1004AC000061BC4800F0A2FE00224FF48051B94814
:1004BC0000F09CFE01224FF40051B64800F096FE6D
:1004CC0096E17B68012B29D101228021B14800F0F3
:1004DC008DFE00224FF48071AE4800F087FE0022A2
:1004EC004FF40071AB4800F081FE01224FF48061A3
:1004FC00A84800F07BFE01224FF40061A54800F0F3
:10050C0075FE01224FF48051A24800F06FFE0122CB
:10051C004FF400519F4800F069FE69E17B68022BA3
:10052C0029D1002280219B4800F060FE00224FF46C
:10053C008071984800F05AFE01224FF400719548E2
:10054C0000F054FE00224FF48061924800F04EFE01
:10055C0000224FF400618F4800F048FE01224FF456
:10056C0080518C4800F042FE00224FF40051894823
:10057C0000F03CFE3CE17B68032B29D1002280215A
:10058C00844800F033FE00224FF48071814800F063
:10059C002DFE00224FF400717E4800F027FE002251
:1005AC004FF480617B4800F021FE01224FF4006182
:1005BC00784800F01BFE01224FF48051754800F082
:1005CC0015FE00224FF40051724800F00FFE0FE1AF
:1005DC007B68042B29D1012280216E4800F006FE95
:1005EC0000224FF480716B4800F000FE00224FF4A3
:1005FC000071684800F0FAFD01224FF480616548F3
:10060C0000F0F4FD01224FF40061624800F0EEFDB1
:10061C0000224FF480515F4800F0E8FD00224FF4B7
:10062C0000515C4800F0E2FDE2E07B68052B29D12B
:10063C0000228021574800F0D9FD01224FF480712F
:10064C00544800F0D3FD00224FF40071514800F0E3
:10065C00CDFD00224FF480614E4800F0C7FD012211
:10066C004FF400614B4800F0C1FD00224FF4805163
:10067C00484800F0BBFD00224FF40051454800F003
:10068C00B5FDB5E07B68062B29D1002280214148BD
:10069C0000F0ACFD01224FF480713E4800F0A6FD45
:1006AC0000224FF400713B4800F0A0FD00224FF4F3
:1006BC008061384800F09AFD00224FF40061354803
:1006CC0000F094FD00224FF48051324800F08EFD72
:1006DC0000224FF400512F4800F088FD88E07B6821
:1006EC00072B29D1002280212A4800F07FFD00220F
:1006FC004FF48071274800F079FD00224FF400710F
:10070C00244800F073FD01224FF48061214800F071
:10071C006DFD01224FF400611E4800F067FD0122BF
:10072C004FF480511B4800F061FD01224FF4005141
:10073C00184800F05BFD5BE07B68082B2CD1002295
:10074C008021144800F052FD00224FF480711148B2
:10075C0000F04CFD00224FF400710E4800F046FDF5
:10076C0000224FF480610B4800F040FD00224FF452
:10077C000061084800F03AFD00224FF48051054812
:10078C0000F034FD00224FF40051024800F02EFD21
:10079C002EE000BF000C01407B68092B28D1002201
:1007AC008021154800F022FD00224FF48071124880
:1007BC0000F01CFD00224FF400710F4800F016FDF4
:1007CC0000224FF480610C4800F010FD01224FF420
:1007DC000061094800F00AFD00224FF480510648E0
:1007EC0000F004FD00224FF40051034800F0FEFC21
:1007FC0000BF0837BD4680BD000C014080B584B0F9
:10080C0000AF00F00FFA00F0F1F800F02BF905231F
:10081C00FB600323BB6002237B6009233B60FB6806
:10082C00002B01DC0523FB60BB68002B01DC0323E0
:10083C00BB607B68002B01DC02237B603B68062BD2
:10084C002DDD01222021684800F0D0FC002240213F
:10085C00654800F0CBFC00228021634800F0C6FC08
:10086C0000220421604800F0C1FC002202215E48F5
:10087C0000F0BCFC012208215B4800F0B7FCFB68CF
:10088C005A1EFA601846FFF75BFCBB685A1EBA602A
:10089C001846FFF7E5FD3B68013B3B609AE03B687F
:1008AC00042B30DD3B68062B2DDC012220214E4829
:1008BC0000F09CFC002240214B4800F097FC0022E9
:1008CC008021494800F092FC00220421464800F0A7
:1008DC008DFC01220221444800F088FC00220821F2
:1008EC00414800F083FCFB685A1EFA601846FFF77B
:1008FC0027FC7B685A1E7A601846FFF7B1FD3B68EF
:10090C00013B3B6066E03B68012B30DD3B68042B10
:10091C002DDC00222021344800F068FC002240210C
:10092C00314800F063FC012280212F4800F05EFC6E
:10093C00012204212C4800F059FC002202212A48F3
:10094C0000F054FC00220821274800F04FFCBB6843
:10095C005A1EBA601846FFF7F3FBFB685A1EFA6082
:10096C001846FFF77DFD3B68013B3B6032E03B687E
:10097C00002B2FDB3B68012B2CDC002220211A489A
:10098C0000F034FC01224021174800F02FFC00221B
:10099C008021154800F02AFC01220421124800F0A5
:1009AC0025FC00220221104800F020FC0022082126
:1009BC000D4800F01BFC7B685A1E7A601846FFF746
:1009CC00BFFBFB685A1EFA601846FFF749FD3B68EF
:1009DC00013B3B603B68002B01DA09233B604FF481
:1009EC007A7000F081F91AE70008014080B590B0E8
:1009FC0000AF07F1180328220021184601F00EF869
:100A0C003B1D00221A605A609A60DA601A61022358
:100A1C00BB610123BB621023FB6200237B6307F1E4
:100A2C001803184600F0FAFB0346002B01D000F027
:100A3C006DF80F237B600023BB600023FB60002359
:100A4C003B6100237B613B1D0021184600F066FED4
:100A5C000346002B01D000F059F800BF4037BD46CB
:100A6C0080BD000080B586B000AF07F108030022FE
:100A7C001A605A609A60DA60214B9B69204A43F0F5
:100A8C00040393611E4B9B6903F004037B607B683A
:100A9C001B4B9B691A4A43F008039361184B9B69E3
:100AAC0003F008033B603B680022EE21154800F080
:100ABC009DFB002243F6FF71134800F097FBEE23D9
:100ACC00BB600123FB6000233B6102237B6107F1C8
:100ADC00080319460B4800F00FFA43F6FF73BB608E
:100AEC000123FB6000233B6102237B6107F10803B8
:100AFC001946054800F000FA00BF1837BD4680BD06
:100B0C000010024000080140000C014080B400AF0E
:100B1C0072B600BFFEE7000080B485B000AF154B85
:100B2C009B69144A43F001039361124B9B6903F0D8
:100B3C000103BB60BB680F4BDB690E4A43F080536B
:100B4C00D3610C4BDB6903F080537B607B680A4BF1
:100B5C005B68FB60FB6823F0E063FB60FB6843F0C1
:100B6C008063FB60044AFB68536000BF1437BD46CA
:100B7C0080BC7047001002400000014080B400AF00
:100B8C00FEE780B400AFFEE780B400AFFEE780B4B0
:100B9C0000AFFEE780B400AFFEE780B400AF00BF4B
:100BAC00BD4680BC704780B400AF00BFBD4680BC62
:100BBC00704780B400AF00BFBD4680BC704780B5A5
:100BCC0000AF00F075F800BF80BD80B400AF00BF6F
:100BDC00BD4680BC70470000FFF7F7FF0B480C497F
:100BEC000C4A002302E0D458C4500433C4188C427D
:100BFC00F9D3094A094C002301E013600432A242E4
:100C0C00FBD300F0E7FEFFF7F9FD70470000002072
:100C1C000C0000207C1A00080C0000202C00002086
:100C2C00FEE7000080B500AF084B1B68074A43F095
:100C3C0010031360032000F02BF90F2000F008F8CC
:100C4C00FFF76AFF0023184680BD00BF002002405A
:100C5C0080B582B000AF7860124B1A68124B1B78CB
:100C6C0019464FF47A73B3FBF1F3B2FBF3F3184666
:100C7C0000F035F90346002B01D001230EE07B6810
:100C8C000F2B0AD8002279684FF0FF3000F00BF9D7
:100C9C00064A7B681360002300E0012318460837DE
:100CAC00BD4680BD0000002008000020040000208C
:100CBC0080B400AF054B1B781A46054B1B681344D8
:100CCC00034A136000BFBD4680BC7047080000207B
:100CDC002800002080B400AF024B1B681846BD46AC
:100CEC0080BC70472800002080B584B000AF7860CD
:100CFC00FFF7F0FFB8607B68FB60FB68B3F1FF3F68
:100D0C0005D00A4B1B781A46FB681344FB6000BFE6
:100D1C00FFF7E0FF0246BB68D31AFA689A42F7D88D
:100D2C0000BF00BF1037BD4680BD00BF08000020CB
:100D3C0080B485B000AF78607B6803F00703FB607C
:100D4C000C4BDB68BB60BA684FF6FF031340BB600B
:100D5C00FB681A02BB68134343F0BF6343F40033D0
:100D6C00BB60044ABB68D36000BF1437BD4680BC6F
:100D7C00704700BF00ED00E080B400AF044BDB68AF
:100D8C001B0A03F007031846BD4680BC704700BF22
:100D9C0000ED00E080B483B000AF03463960FB7116
:100DAC0097F90730002B0ADB3B68DAB20C4997F94C
:100DBC0007301201D2B20B4483F800230AE03B68DF
:100DCC00DAB20849FB7903F00F03043B1201D2B2EB
:100DDC000B441A7600BF0C37BD4680BC704700BF71
:100DEC0000E100E000ED00E080B489B000AFF860F5
:100DFC00B9607A60FB6803F00703FB61FB69C3F120
:100E0C000703042B28BF0423BB61FB690433062BA7
:100E1C0002D9FB69033B00E000237B614FF0FF32FA
:100E2C00BB6902FA03F3DA43BB681A407B699A4048
:100E3C004FF0FF317B6901FA03F3D9437B680B4018
:100E4C00134318462437BD4680BC704780B582B02A
:100E5C0000AF78607B68013BB3F1807F01D3012345
:100E6C000FE00A4A7B68013B53600F214FF0FF30C3
:100E7C00FFF790FF054B00229A60044B07221A6083
:100E8C00002318460837BD4680BD00BF10E000E0C7
:100E9C0080B582B000AF78607868FFF749FF00BF7B
:100EAC000837BD4680BD80B586B000AF0346B9603B
:100EBC007A60FB7300237B61FFF75EFF78617A68D1
:100ECC00B9687869FFF790FF024697F90F30114621
:100EDC001846FFF75FFF00BF1837BD4680BD80B5D1
:100EEC0082B000AF78607868FFF7B0FF0346184611
:100EFC000837BD4680BD000080B48BB000AF786071
:100F0C00396000237B6200233B6248E101227B6A4B
:100F1C0002FA03F3FB613B681B68FA691340BB617F
:100F2C00BA69FB699A4240F037813B685B68A34A17
:100F3C0093425ED0A14A934275D8A14A934258D0AD
:100F4C009F4A93426FD89F4A934252D09D4A9342F4
:100F5C0069D89D4A93424CD09B4A934263D89B4A92
:100F6C00934246D0994A93425DD8122B2AD8122B21
:100F7C0059D801A252F823F0FF0F0008D90F00082E
:100F8C00EB0F00082D100008331000083310000878
:100F9C003310000833100008331000083310000819
:100FAC003310000833100008331000083310000809
:100FBC00331000083310000833100008E10F00084C
:100FCC00F50F0008824A934213D02CE03B68DB6893
:100FDC003B6229E03B68DB6804333B6224E03B68FE
:100FEC00DB6808333B621FE03B68DB680C333B6219
:100FFC001AE03B689B68002B02D104233B6213E090
:10100C003B689B68012B05D108233B627B68FA691E
:10101C001A6109E008233B627B68FA695A6103E0B4
:10102C0000233B6200E000BFBB69FF2B01D87B684B
:10103C0001E07B6804337B61BB69FF2B02D87B6AC0
:10104C009B0002E07B6A083B9B003B617B691A6852
:10105C000F213B6901FA03F3DB431A40396A3B6900
:10106C0001FA03F31A437B691A603B685B6803F06F
:10107C008053002B00F09080564B9B69554A43F0EF
:10108C0001039361534B9B6903F00103BB60BB6885
:10109C00514A7B6A9B08023352F82330FB607B6A0F
:1010AC0003F003039B000F2202FA03F3DB43FA68FD
:1010BC001340FB607B68494A93420DD07B68484AD9
:1010CC00934207D07B68474A934201D1022304E044
:1010DC00032302E0012300E000237A6A02F00302FA
:1010EC0092009340FA681343FB603B497B6A9B0870
:1010FC000233FA6841F823203B685B6803F48013E1
:10110C00002B06D0384B9A683749BB6913438B6068
:10111C0006E0354B9A68BB69DB43334913408B605F
:10112C003B685B6803F40013002B06D02E4BDA6887
:10113C002D49BB691343CB6006E02B4BDA68BB69C6
:10114C00DB4329491340CB603B685B6803F40033F5
:10115C00002B06D0244B5A682349BB6913434B60C0
:10116C0006E0214B5A68BB69DB431F4913404B60B7
:10117C003B685B6803F48033002B06D01A4B1A686B
:10118C001949BB6913430B6006E0174B1A68BB691E
:10119C00DB43154913400B607B6A01337B623B6870
:1011AC001A687B6A22FA03F3002B7FF4AFAE00BF00
:1011BC0000BF2C37BD4680BC704700BF000032100A
:1011CC00000031100000221000002110000012104D
:1011DC000000111000100240000001400008014006
:1011EC00000C0140001001400004014080B483B0A9
:1011FC0000AF78600B467B8013467B707B78002BAE
:10120C0003D07A887B681A6103E07B881A047B68B8
:10121C001A6100BF0C37BD4680BC704780B586B0E4
:10122C0000AF78607B68002B01D101236CE27B68F6
:10123C001B6803F00103002B00F08780924B5B6866
:10124C0003F00C03042B0CD08F4B5B6803F00C03E6
:10125C00082B12D18C4B5B6803F48033B3F5803FC1
:10126C000BD1894B1B6803F40033002B6CD07B68CB
:10127C005B68002B68D1012346E27B685B68B3F5A1
:10128C00803F06D1804B1B687F4A43F48033136048
:10129C002EE07B685B68002B0CD17B4B1B687A4A79
:1012AC0023F480331360784B1B68774A23F4802334
:1012BC0013601DE07B685B68B3F5A02F0CD1724BFB
:1012CC001B68714A43F4802313606F4B1B686E4A92
:1012DC0043F4803313600BE06B4B1B686A4A23F4B6
:1012EC0080331360684B1B68674A23F480231360B8
:1012FC007B685B68002B13D0FFF7ECFC386108E0CF
:10130C00FFF7E8FC02463B69D31A642B01D903238F
:10131C00FAE15D4B1B6803F40033002BF0D014E0B2
:10132C00FFF7D8FC386108E0FFF7D4FC02463B69B4
:10133C00D31A642B01D90323E6E1534B1B6803F446
:10134C000033002BF0D100E000BF7B681B6803F07A
:10135C000203002B63D04C4B5B6803F00C03002B97
:10136C000BD0494B5B6803F00C03082B1CD1464B8C
:10137C005B6803F48033002B16D1434B1B6803F0DE
:10138C000203002B05D07B681B69012B01D00123C4
:10139C00BAE13D4B1B6823F0F8027B685B69DB000C
:1013AC00394913430B603AE07B681B69002B20D052
:1013BC00364B01221A60FFF78DFC386108E0FFF70D
:1013CC0089FC02463B69D31A022B01D903239BE10A
:1013DC002D4B1B6803F00203002BF0D02A4B1B682B
:1013EC0023F0F8027B685B69DB00274913430B6031
:1013FC0015E0264B00221A60FFF76CFC386108E000
:10140C00FFF768FC02463B69D31A022B01D9032370
:10141C007AE11D4B1B6803F00203002BF0D17B68B3
:10142C001B6803F00803002B3AD07B689B69002BE8
:10143C0019D0174B01221A60FFF74CFC386108E0F9
:10144C00FFF748FC02463B69D31A022B01D9032350
:10145C005AE10D4B5B6A03F00203002BF0D0012024
:10146C0000F09AFA1CE00A4B00221A60FFF732FCDB
:10147C0038610FE0FFF72EFC02463B69D31A022BB2
:10148C0008D9032340E100BF001002400000424293
:10149C00800442429E4B5B6A03F00203002BE9D1AD
:1014AC007B681B6803F00403002B00F0A68000236C
:1014BC00FB75974BDB6903F08053002B0DD1944BDC
:1014CC00DB69934A43F08053D361914BDB6903F0A2
:1014DC008053BB60BB680123FB758E4B1B6803F408
:1014EC008073002B18D18B4B1B688A4A43F4807392
:1014FC001360FFF7EFFB386108E0FFF7EBFB0246E8
:10150C003B69D31A642B01D90323FDE0814B1B6883
:10151C0003F48073002BF0D07B68DB68012B06D1C1
:10152C007B4B1B6A7A4A43F0010313622DE07B6804
:10153C00DB68002B0CD1764B1B6A754A23F0010338
:10154C001362734B1B6A724A23F0040313621CE090
:10155C007B68DB68052B0CD16D4B1B6A6C4A43F026
:10156C00040313626A4B1B6A694A43F0010313625A
:10157C000BE0674B1B6A664A23F001031362644B52
:10158C001B6A634A23F0040313627B68DB68002B3D
:10159C0015D0FFF79FFB38610AE0FFF79BFB024673
:1015AC003B69D31A41F28832934201D90323ABE051
:1015BC00574B1B6A03F00203002BEED014E0FFF72D
:1015CC0089FB38610AE0FFF785FB02463B69D31AB9
:1015DC0041F28832934201D9032395E04C4B1B6AAC
:1015EC0003F00203002BEED1FB7D012B05D1484B00
:1015FC00DB69474A23F08053D3617B68DB69002B9E
:10160C0000F08180424B5B6803F00C03082B61D027
:10161C007B68DB69022B46D13F4B00221A60FFF737
:10162C0059FB386108E0FFF755FB02463B69D31ABA
:10163C00022B01D9032367E0354B1B6803F00073C1
:10164C00002BF0D17B681B6AB3F5803F08D1304B7F
:10165C005B6823F400327B689B682D4913434B6015
:10166C002B4B5B6823F474127B68196A7B685B6A8A
:10167C000B43274913434B60274B01221A60FFF79A
:10168C0029FB386108E0FFF725FB02463B69D31ABA
:10169C00022B01D9032337E01D4B1B6803F00073A9
:1016AC00002BF0D02FE01C4B00221A60FFF712FB2E
:1016BC00386108E0FFF70EFB02463B69D31A022B98
:1016CC0001D9032320E0124B1B6803F00073002B9D
:1016DC00F0D118E07B68DB69012B01D1012313E009
:1016EC000B4B5B68FB60FB6803F480327B681B6A06
:1016FC009A4206D1FB6803F470127B685B6A9A42CB
:10170C0001D0012300E0002318461837BD4680BDE8
:10171C0000100240007000406000424280B584B06E
:10172C0000AF786039607B68002B01D10123D0E0D9
:10173C006A4B1B6803F007033A689A4210D9674B4F
:10174C001B6823F0070265493B6813430B60634B2E
:10175C001B6803F007033A689A4201D00123B8E0F2
:10176C007B681B6803F00203002B20D07B681B688E
:10177C0003F00403002B05D0594B5B68584A43F423
:10178C00E06353607B681B6803F00803002B05D0F3
:10179C00534B5B68524A43F460535360504B5B6845
:1017AC0023F0F0027B689B684D4913434B607B68C8
:1017BC001B6803F00103002B40D07B685B68012B96
:1017CC0007D1474B1B6803F40033002B15D10123C1
:1017DC007FE07B685B68022B07D1414B1B6803F0F1
:1017EC000073002B09D1012373E03D4B1B6803F000
:1017FC000203002B01D101236BE0394B5B6823F012
:10180C0003027B685B68364913434B60FFF762FA4F
:10181C00F8600AE0FFF75EFA0246FB68D31A41F261
:10182C008832934201D9032353E02D4B5B6803F0BC
:10183C000C027B685B689B009A42EBD1274B1B68C0
:10184C0003F007033A689A4210D2244B1B6823F02A
:10185C00070222493B6813430B60204B1B6803F0C3
:10186C0007033A689A4201D0012332E07B681B6877
:10187C0003F00403002B08D0194B5B6823F4E062DF
:10188C007B68DB68164913434B607B681B6803F06D
:10189C000803002B09D0124B5B6823F460527B6861
:1018AC001B69DB000E4913434B6000F021F8024624
:1018BC000B4B5B681B0903F00F030A49CB5C22FA44
:1018CC0003F3094A1360094B1B681846FFF7C0F96C
:1018DC00002318461037BD4680BD00BF00200240D3
:1018EC0000100240501A00080000002004000020E4
:1018FC0080B487B000AF0023FB600023BB600023E3
:10190C007B6100237B6000233B611E4B5B68FB60AB
:10191C00FB6803F00C03042B02D0082B03D027E048
:10192C00194B3B6127E0FB689B0C03F00F03174A34
:10193C00D35C7B60FB6803F48033002B10D0114B1D
:10194C005B685B0C03F00103114AD35CBB607B68E2
:10195C000D4A02FB03F2BB68B2FBF3F37B6104E0BC
:10196C007B680C4A02FB03F37B617B693B6102E001
:10197C00054B3B6100BF3B6918461C37BD4680BC1C
:10198C00704700BF0010024000127A00601A000875
:10199C00701A000800093D0080B485B000AF786073
:1019AC000A4B1B680A4AA2FB03235B0A7A6802FBF8
:1019BC0003F3FB6000BFFB685A1EFA60002BF9D1E1
:1019CC0000BF00BF1437BD4680BC7047000000202C
:1019DC00D34D621070B500260C4D0D4C641BA41039
:1019EC00A64209D100F022F800260A4D0A4C641BCD
:1019FC00A410A64205D170BD55F8043B984701369A
:101A0C00EEE755F8043B98470136F2E7741A0008E4
:101A1C00741A0008741A0008781A00080346024465
:101A2C00934200D1704703F8011BF9E7F8B500BFEA
:101A3C00F8BC08BC9E467047F8B500BFF8BC08BCA3
:041A4C009E467047FB
:101A5000000000000000000001020304060708095E
:101A600002030405060708090A0B0C0D0E0F1010DF
:041A7000010200006F
:041A74003101000834
:041A78000D01000854
:0C1A7C0000127A001000000001000000C1
:0400000508000BE5FF
:00000001FF
